:100000000C9436000C945E000C945E000C945E0020
:100010000C945E000C945E000C945E000C945E00E8
:100020000C945E000C945E000C945E000C945E00D8
:100030000C945E000C945E000C945E000C945E00C8
:100040000C94DA010C945E000C94AC030C94DE0367
:100050000C945E000C945E000C945E000C945E00A8
:100060000C945E000C945E00B9010E0411241FBEB6
:10007000CFEFD8E0DEBFCDBF11E0A0E0B1E0EAE114
:10008000FBE002C005900D92A839B107D9F722E034
:10009000A8E9B1E001C01D92A638B207E1F710E06F
:1000A000CCE6D0E004C02297FE010E948705C83646
:1000B000D107C9F70E9452040C948B050C940000E0
:1000C00048EB5BE060E070E088E991E00E940201AB
:1000D00020E835E240E050E069EE71E088E991E027
:1000E0000E94160161E088E991E00E94CC0088231B
:1000F000A1F060E071E08091DA019091DB010E9453
:100100009F044AE050E060E070E088E991E00E94DE
:10011000C90088E991E00E94010141E060E088E9BE
:1001200091E00E949D0126E040E855E260E070E029
:1001300089EE91E00C94500362E171E089EE91E068
:100140000C94BC048F929F92AF92BF92CF92DF9299
:10015000EF92FF926A017B010E9424024B015C0135
:10016000C60ED71EE81EF91E0E94240268157905E6
:100170008A059B0528F0C616D706E806F906A0F7FB
:10018000FF90EF90DF90CF90BF90AF909F908F90B7
:10019000089521E00C94A200CF92DF92EF92FF929B
:1001A000CF93DF93EC0161111EC00E942402CA802C
:1001B000DB80EC80FD806C197D098E099F09693117
:1001C00071058105910578F429E1C22ED12CE12C2D
:1001D000F12CC61AD70AE80AF90A21E0B701A601EC
:1001E000CE010E94A2000E9424026A837B838C833A
:1001F0009D8381E0DF91CF91FF90EF90DF90CF90D2
:1002000008950895FC01EC5BFF4F10821182128269
:100210001382FC011282138214821582411551054A
:100220006105710511F00C94C9000895FB01BA0134
:10023000A9018E5B9F4FDC01ED93FC9326E0CF017B
:100240000C9450038E5B9F4FDC018D919C91DC01DF
:10025000ED91FC910680F781E02D099508958E5B64
:100260009F4FDC018D919C91DC01ED91FC9104800C
:10027000F581E02D09950895FF920F931F93CF9379
:10028000DF93EC01F62E0E9424026A837B838C8329
:100290009D838E010E5B1F4F60E371E0F80180814A
:1002A00091810E949F044AE050E06F2DF801808107
:1002B00091810E94340567E371E0F80180819181AA
:1002C0000E949F0442E350E060E070E0CE01DF91C5
:1002D000CF911F910F91FF900C94C9001F93CF9362
:1002E000DF93EC01162F8E89882311F1CE010E9435
:1002F0002F01811102C085E61CC0CE010E942F0192
:100300008823C9F3CE010E942201883689F048F47F
:10031000883569F0833689F7612FCE010E943C0150
:1003200007C0813729F0863741F786E702C01E8A69
:1003300083E6DF91CF911F9108951F93CF93DF93B1
:10034000EC01142F611105C01E8BDF91CF911F911D
:10035000089581E08E8B60E0CE010E946E018336AD
:1003600099F341E050E060E070E0CE010E94C900E6
:10037000F2CF10929E0110929F011092A001109254
:10038000A1011092A2011092A3011092A401109257
:10039000A5011092A6011092A7011092A801109237
:1003A000A9011092AA011092AB011092AC01109217
:1003B000AD0108951F920F920FB60F9211242F9343
:1003C0003F938F939F93AF93BF938091E10190915F
:1003D000E201A091E301B091E4013091E00126E057
:1003E000230F2D3720F40296A11DB11D05C029E869
:1003F000230F0396A11DB11D2093E0018093E1011D
:100400009093E201A093E301B093E4018091E501B0
:100410009091E601A091E701B091E8010196A11D3C
:10042000B11D8093E5019093E601A093E701B0939D
:10043000E801BF91AF919F918F913F912F910F90C4
:100440000FBE0F901F9018952FB7F8946091E1019F
:100450007091E2018091E3019091E4012FBF089532
:10046000789484B5826084BD84B5816084BD85B58F
:10047000826085BD85B5816085BDEEE6F0E0808156
:1004800081608083E1E8F0E0108280818260808377
:10049000808181608083E0E8F0E0808181608083FA
:1004A000E1EBF0E0808184608083E0EBF0E080812C
:1004B00081608083EAE7F0E08081846080838081CE
:1004C0008260808380818160808380818068808376
:1004D0001092C1000895FC01818D228D90E0805C16
:1004E0009F4F821B910960E470E00E943B050895D4
:1004F000FC01918D828D981731F0828DE80FF11DEE
:10050000858D90E008958FEF9FEF0895FC01918D08
:10051000828D981761F0828DDF01A80FB11D5D9665
:100520008C91928D9F5F9F73928F90E008958FEFD3
:100530009FEF089584E094E0892B49F080E090E0FB
:10054000892B29F00E94040481110C940000089565
:10055000FC01848DDF01A80FB11DA35ABF4F2C9160
:10056000848D90E001968F739927848FA689B7892F
:100570002C93A089B1898C9180648C93938D848D08
:10058000981306C00288F389E02D80818F7D8083D7
:100590000895CF93DF93EC01888D8823C9F0EA8911
:1005A000FB89808185FD05C0A889B9898C9186FD6C
:1005B0000FC00FB607FCF5CF808185FFF2CFA88969
:1005C000B9898C9185FFEDCFCE010E94A802E7CFBB
:1005D000DF91CF910895CF92DF92FF920F931F93F7
:1005E000CF93DF931F92CDB7DEB76C01DC015B9632
:1005F0009C915B975C968C915C97981307C0509682
:10060000ED91FC915197808185FD32C0F601038DFB
:1006100010E00F5F1F4F0F731127F02EF601848D2E
:10062000F81211C00FB607FCF9CFD6015096ED9124
:10063000FC915197808185FFF1CFC60169830E94AB
:10064000A8026981EBCF838DE80FF11DE35AFF4FBC
:100650006083D6015B960C935B975296ED91FC916B
:10066000539780818062808381E058968C930DC07F
:10067000D6015696ED91FC91579760835096ED9177
:10068000FC91519780818064808381E090E00F909D
:10069000DF91CF911F910F91FF90DF90CF90089540
:1006A000BF92CF92DF92EF92FF92CF93DF93EC0154
:1006B0006A017B01B22E60E874E88EE190E0A70148
:1006C00096010E944F052150310941095109569563
:1006D000479537952795E889F98982E08083211528
:1006E00080E1380798F0E889F989108260E472E4C3
:1006F0008FE090E0A70196010E944F05215031093B
:10070000410951095695479537952795EC85FD8503
:100710003083EE85FF852083188EEC89FD89B082B9
:10072000EA89FB89808180618083EA89FB898081F5
:1007300088608083EA89FB89808180688083EA8978
:10074000FB8980818F7D8083DF91CF91FF90EF9037
:10075000DF90CF90BF9008951F920F920FB60F9227
:1007600011242F938F939F93EF93FF93E091F901BF
:10077000F091FA018081E091FF01F091000282FD89
:1007800012C09081809102028F5F8F7320910302CB
:10079000821751F0E0910202F0E0E751FE4F958F91
:1007A0008093020201C08081FF91EF919F918F9110
:1007B0002F910F900FBE0F901F9018951F920F92C0
:1007C0000FB60F9211242F933F934F935F936F9324
:1007D0007F938F939F93AF93BF93EF93FF9389EE94
:1007E00091E00E94A802FF91EF91BF91AF919F917C
:1007F0008F917F916F915F914F913F912F910F90CA
:100800000FBE0F901F90189589EE91E00E946B0229
:1008100021E0892B09F420E0822F08951092EC0149
:100820001092EB0188EE93E0A0E0B0E08093ED0140
:100830009093EE01A093EF01B093F0018CE891E06A
:100840009093EA018093E90185EC90E09093F601A2
:100850008093F50184EC90E09093F8018093F70188
:1008600080EC90E09093FA018093F90181EC90E0A4
:100870009093FC018093FB0182EC90E09093FE0149
:100880008093FD0186EC90E0909300028093FF013D
:1008900010920202109203021092040210920502BA
:1008A000089508950E9430020E9451040E94600041
:1008B000CAE9D2E00E949C002097E1F30E949A02CC
:1008C000F9CFCF92DF92EF92FF920F931F93CF93C6
:1008D000DF936C017A01EB01E60EF71E00E010E0F9
:1008E000CE15DF0561F06991D601ED91FC91019083
:1008F000F081E02DC6010995080F191FF1CFC8013D
:10090000DF91CF911F910F91FF90EF90DF90CF90EB
:1009100008956115710581F0DB010D900020E9F764
:10092000AD0141505109461B570BDC01ED91FC9183
:100930000280F381E02D099480E090E008950C940A
:100940008904DC01ED91FC910190F081E02D099486
:100950000F931F93CF93DF93EC016DE00E94A104EE
:100960008C016AE0CE010E94A104800F911FDF91EB
:10097000CF911F910F9108950F931F93CF93DF9302
:10098000EC010E9489048C01CE010E94A804800F12
:10099000911FDF91CF911F910F9108958F929F9298
:1009A000AF92BF92CF92DF92EF92FF920F931F937D
:1009B000CF93DF93CDB7DEB7A1970FB6F894DEBF24
:1009C0000FBECDBF7C01C42EE52FCB01D22E19A2C4
:1009D00021E02D1510F02AE0D22E8E010F5D1F4F61
:1009E0008D2C912CA12CB12C6C2D7E2FA501940166
:1009F0000E944F058C2DD29E80191124015011099F
:100A00008A3014F4805D01C0895CF801808321156F
:100A100031054105510521F0C22EE32FCA01E4CF73
:100A2000B801C7010E948904A1960FB6F894DEBFF1
:100A30000FBECDBFDF91CF911F910F91FF90EF902F
:100A4000DF90CF90BF90AF909F908F900895211529
:100A5000310541F4DC01ED91FC910190F081E02D34
:100A6000642F09940C94CE049A01462F50E060E064
:100A700070E00C94270597FB072E16F4009407D01E
:100A800077FD09D00E94710507FC05D03EF49095D2
:100A900081959F4F0895709561957F4F0895A1E2CC
:100AA0001A2EAA1BBB1BFD010DC0AA1FBB1FEE1FE8
:100AB000FF1FA217B307E407F50720F0A21BB30B33
:100AC000E40BF50B661F771F881F991F1A9469F7AF
:100AD00060957095809590959B01AC01BD01CF010B
:100AE0000895AA1BBB1B51E107C0AA1FBB1FA61775
:100AF000B70710F0A61BB70B881F991F5A95A9F7C7
:100B000080959095BC01CD010895EE0FFF1F0590D3
:0A0B1000F491E02D0994F894FFCF52
:100B1A00564D4450565F317C315F564D4450560D08
:100B2A000A0048656C6C6F20776F726C6400564DD2
:100B3A004450455F003A323A005F564D44504500F2
:100B4A00564D4450435F005F564D4450430D0A00D2
:100B5A004572726F723A20417474656D70742074B4
:100B6A006F20736574206120726561642D6F6E6CED
:100B7A0079207661726961626C65206F72206461A6
:100B8A0074612074797065206E6F7420737570704B
:100B9A006F727465640D0A0000000000EB026104C4
:080BAA006B0286027802C90209
:00000001FF
