:100000000C9458000C9480000C9480000C94800098
:100010000C9480000C9480000C9480000C94800060
:100020000C9480000C9480000C9480000C94800050
:100030000C9480000C9480000C9480000C94800040
:100040000C94BC000C9480000C942C030C945E0364
:100050000C9480000C9480000C9480000C94800020
:100060000C9480000C948000000000080002010045
:100070000003040700000000000000000102040863
:100080001020408001020408102001020408102002
:10009000040404040404040402020202020203032E
:1000A0000303030300000000250028002B008E033B
:1000B00011241FBECFEFD8E0DEBFCDBF11E0A0E01E
:1000C000B1E0EEE3F9E002C005900D92A032B10775
:1000D000D9F721E0A0E2B1E001C01D92A83CB2072F
:1000E000E1F710E0C0EBD0E004C02297FE010E94CF
:1000F0009904CE3AD107C9F70E94D2030C949D040B
:100100000C94000026E040E855E260E070E08BE2ED
:1001100091E00E94D00284E090E0909321018093CE
:100120002001089560E071E08BE291E00E943A04C2
:1001300080E291E00E94B20068EE73E080E090E01F
:100140000E94290167E071E08BE291E00E943A048D
:1001500080E291E00E94B70068EE73E080E090E0FA
:100160000C94290161E0FC0180810C94B50160E0F0
:10017000FC0180810C94B5011F920F920FB60F9273
:1001800011242F933F938F939F93AF93BF938091AD
:10019000230190912401A0912501B0912601309175
:1001A000220126E0230F2D3720F40296A11DB11D58
:1001B00005C029E8230F0396A11DB11D209322013C
:1001C0008093230190932401A0932501B0932601ED
:1001D0008091270190912801A0912901B0912A01D5
:1001E0000196A11DB11D8093270190932801A09332
:1001F0002901B0932A01BF91AF919F918F913F91B7
:100200002F910F900FBE0F901F9018953FB7F89445
:100210008091270190912801A0912901B0912A0194
:1002200026B5A89B05C02F3F19F00196A11DB11D51
:100230003FBF6627782F892F9A2F620F711D811D6E
:10024000911D43E0660F771F881F991F4A95D1F7CC
:100250000895CF92DF92EF92FF92CF93DF936B01DD
:100260007C010E940601EB01C114D104E104F104F8
:1002700089F00E944C040E9406016C1B7D0B683EB5
:10028000734090F381E0C81AD108E108F108C85121
:10029000DC4FEACFDF91CF91FF90EF90DF90CF90CE
:1002A0000895789484B5826084BD84B5816084BDEE
:1002B00085B5826085BD85B5816085BDEEE6F0E0DF
:1002C000808181608083E1E8F0E01082808182603B
:1002D0008083808181608083E0E8F0E080818160BC
:1002E0008083E1EBF0E0808184608083E0EBF0E0EC
:1002F000808181608083EAE7F0E080818460808390
:100300008081826080838081816080838081806839
:1003100080831092C1000895833081F028F48130E9
:1003200099F08230A1F008958730A9F08830B9F0B3
:100330008430D1F4809180008F7D03C08091800053
:100340008F7780938000089584B58F7702C084B53D
:100350008F7D84BD08958091B0008F7703C0809118
:10036000B0008F7D8093B00008950F931F93CF93BB
:10037000DF931F92CDB7DEB7282F30E0F901E8599F
:10038000FF4F8491F901E458FF4F1491F901E057B0
:10039000FF4F04910023C9F0882321F069830E9454
:1003A0008C016981E02FF0E0EE0FFF1FEC55FF4F4D
:1003B000A591B4919FB7F8948C91611103C01095E9
:1003C000812301C0812B8C939FBF0F90DF91CF9130
:1003D0001F910F910895FC01818D228D90E0805C2A
:1003E0009F4F821B910960E470E00E944D040895C4
:1003F000FC01918D828D981731F0828DE80FF11DEF
:10040000858D90E008958FEF9FEF0895FC01918D09
:10041000828D981761F0828DDF01A80FB11D5D9666
:100420008C91928D9F5F9F73928F90E008958FEFD4
:100430009FEF089584E893E0892B49F080E090E0F5
:10044000892B29F00E94840381110C9400000895E7
:10045000FC01848DDF01A80FB11DA35ABF4F2C9161
:10046000848D90E001968F739927848FA689B78930
:100470002C93A089B1898C9180648C93938D848D09
:10048000981306C00288F389E02D80818F7D8083D8
:100490000895CF93DF93EC01888D8823C9F0EA8912
:1004A000FB89808185FD05C0A889B9898C9186FD6D
:1004B0000FC00FB607FCF5CF808185FFF2CFA8896A
:1004C000B9898C9185FFEDCFCE010E942802E7CF3C
:1004D000DF91CF910895CF92DF92FF920F931F93F8
:1004E000CF93DF931F92CDB7DEB76C01DC015B9633
:1004F0009C915B975C968C915C97981307C0509683
:10050000ED91FC915197808185FD32C0F601038DFC
:1005100010E00F5F1F4F0F731127F02EF601848D2F
:10052000F81211C00FB607FCF9CFD6015096ED9125
:10053000FC915197808185FFF1CFC60169830E94AC
:1005400028026981EBCF838DE80FF11DE35AFF4F3D
:100550006083D6015B960C935B975296ED91FC916C
:10056000539780818062808381E058968C930DC080
:10057000D6015696ED91FC91579760835096ED9178
:10058000FC91519780818064808381E090E00F909E
:10059000DF91CF911F910F91FF90DF90CF90089541
:1005A000BF92CF92DF92EF92FF92CF93DF93EC0155
:1005B0006A017B01B22E60E874E88EE190E0A70149
:1005C00096010E9461042150310941095109569553
:1005D000479537952795E889F98982E08083211529
:1005E00080E1380798F0E889F989108260E472E4C4
:1005F0008FE090E0A70196010E946104215031092B
:10060000410951095695479537952795EC85FD8504
:100610003083EE85FF852083188EEC89FD89B082BA
:10062000EA89FB89808180618083EA89FB898081F6
:1006300088608083EA89FB89808180688083EA8979
:10064000FB8980818F7D8083DF91CF91FF90EF9038
:10065000DF90CF90BF9008951F920F920FB60F9228
:1006600011242F938F939F93EF93FF93E0913B017E
:10067000F0913C018081E0914101F091420182FDC5
:1006800012C09081809144018F5F8F73209145014A
:10069000821751F0E0914401F0E0E55DFE4F958F47
:1006A0008093440101C08081FF91EF919F918F91D0
:1006B0002F910F900FBE0F901F9018951F920F92C1
:1006C0000FB60F9211242F933F934F935F936F9325
:1006D0007F938F939F93AF93BF93EF93FF938BE29F
:1006E00091E00E942802FF91EF91BF91AF919F91FD
:1006F0008F917F916F915F914F913F912F910F90CB
:100700000FBE0F901F9018958BE291E00E94EB01B5
:1007100021E0892B09F420E0822F089510922E0108
:1007200010922D0188EE93E0A0E0B0E080932F01BD
:1007300090933001A0933101B093320183E191E0B5
:1007400090932C0180932B0185EC90E090933801DD
:100750008093370184EC90E090933A0180933901C3
:1007600080EC90E090933C0180933B0181EC90E021
:1007700090933E0180933D0182EC90E09093400184
:1007800080933F0186EC90E0909342018093410179
:1007900010924401109245011092460110924701B7
:1007A000089508950E9451010E94D1030E94820081
:1007B000CAE1D2E00E9492002097E1F30E941A025F
:1007C000F9CFCF92DF92EF92FF920F931F93CF93C7
:1007D000DF936C017A01EB01E60EF71E00E010E0FA
:1007E000CE15DF0561F06991D601ED91FC91019084
:1007F000F081E02DC6010995080F191FF1CFC8013E
:10080000DF91CF911F910F91FF90EF90DF90CF90EC
:1008100008956115710581F0DB010D900020E9F765
:10082000AD0141505109461B570BDC01ED91FC9184
:100830000280F381E02D099480E090E00895DC01CE
:10084000ED91FC910190F081E02D09940F931F939D
:10085000CF93DF93EC016DE00E941F048C016AE0EE
:10086000CE010E941F04800F911FDF91CF911F9135
:100870000F9108950F931F93CF93DF93EC010E9484
:1008800009048C01CE010E942604800F911FDF9184
:10089000CF911F910F910895089597FB072E16F49D
:1008A000009407D077FD09D00E94830407FC05D08F
:1008B0003EF4909581959F4F0895709561957F4F77
:1008C0000895A1E21A2EAA1BBB1BFD010DC0AA1F91
:1008D000BB1FEE1FFF1FA217B307E407F50720F0A9
:1008E000A21BB30BE40BF50B661F771F881F991F24
:1008F0001A9469F760957095809590959B01AC016D
:10090000BD01CF010895AA1BBB1B51E107C0AA1F5F
:10091000BB1FA617B70710F0A61BB70B881F991FA0
:100920005A95A9F780959095BC01CD010895EE0FD9
:0E093000FF1F0590F491E02D0994F894FFCF7D
:10093E004C4544204F4E004C4544204F4646000047
:10094E000000006B02E103EB010602F80149020010
:00000001FF
