:100000000C9435000C945D000C945D000C945D0024
:100010000C945D000C945D000C945D000C945D00EC
:100020000C945D000C945D000C945D000C945D00DC
:100030000C945D000C945D000C945D000C945D00CC
:100040000C9474000C945D000C9485020C94B7021F
:100050000C945D000C945D000C945D000C945D00AC
:100060000C945D000C945D00E70211241FBECFEFDD
:10007000D8E0DEBFCDBF11E0A0E0B1E0E0EFF7E0F7
:1000800002C005900D92AC31B107D9F721E0ACE187
:10009000B1E001C01D92A23CB207E1F710E0CAE650
:1000A000D0E004C02297FE010E94F203C836D107B7
:1000B000C9F70E942B030C94F6030C94000026E071
:1000C00040E855E260E070E085E291E00C9429029E
:1000D00060E071E085E291E00E94930368E873E1DB
:1000E00080E090E00C94E1001F920F920FB60F9207
:1000F00011242F933F938F939F93AF93BF9380913E
:100100001D0190911E01A0911F01B091200130911D
:100110001C0126E0230F2D3720F40296A11DB11DEE
:1001200005C029E8230F0396A11DB11D20931C01D2
:1001300080931D0190931E01A0931F01B093200195
:100140008091210190912201A0912301B09124017D
:100150000196A11DB11D8093210190932201A093CE
:100160002301B0932401BF91AF919F918F913F9153
:100170002F910F900FBE0F901F9018953FB7F894D6
:100180008091210190912201A0912301B09124013D
:1001900026B5A89B05C02F3F19F00196A11DB11DE2
:1001A0003FBF6627782F892F9A2F620F711D811DFF
:1001B000911D43E0660F771F881F991F4A95D1F75D
:1001C0000895CF92DF92EF92FF92CF93DF936B016E
:1001D0007C010E94BE00EB01C114D104E104F104D2
:1001E00089F00E94A5030E94BE006C1B7D0B683E37
:1001F000734090F381E0C81AD108E108F108C851B2
:10020000DC4FEACFDF91CF91FF90EF90DF90CF905E
:100210000895789484B5826084BD84B5816084BD7E
:1002200085B5826085BD85B5816085BDEEE6F0E06F
:10023000808181608083E1E8F0E0108280818260CB
:100240008083808181608083E0E8F0E0808181604C
:100250008083E1EBF0E0808184608083E0EBF0E07C
:10026000808181608083EAE7F0E080818460808320
:1002700080818260808380818160808380818068CA
:1002800080831092C1000895FC01818D228D90E041
:10029000805C9F4F821B910960E470E00E94A6037E
:1002A0000895FC01918D828D981731F0828DE80FB1
:1002B000F11D858D90E008958FEF9FEF0895FC016B
:1002C000918D828D981761F0828DDF01A80FB11D8D
:1002D0005D968C91928D9F5F9F73928F90E00895B1
:1002E0008FEF9FEF08958DED92E0892B49F080E02C
:1002F00090E0892B29F00E94DD0281110C9400000E
:100300000895FC01848DDF01A80FB11DA35ABF4FD2
:100310002C91848D90E001968F739927848FA68904
:10032000B7892C93A089B1898C9180648C93938D2B
:10033000848D981306C00288F389E02D80818F7D1B
:1003400080830895CF93DF93EC01888D8823C9F0D3
:10035000EA89FB89808185FD05C0A889B9898C91CE
:1003600086FD0FC00FB607FCF5CF808185FFF2CF69
:10037000A889B9898C9185FFEDCFCE010E948101BA
:10038000E7CFDF91CF910895CF92DF92FF920F9345
:100390001F93CF93DF931F92CDB7DEB76C01DC01C3
:1003A0005B969C915B975C968C915C97981307C0C9
:1003B0005096ED91FC915197808185FD32C0F601F8
:1003C000038D10E00F5F1F4F0F731127F02EF60102
:1003D000848DF81211C00FB607FCF9CFD6015096E4
:1003E000ED91FC915197808185FFF1CFC601698322
:1003F0000E9481016981EBCF838DE80FF11DE35AE3
:10040000FF4F6083D6015B960C935B975296ED91FC
:10041000FC91539780818062808381E058968C9311
:100420000DC0D6015696ED91FC915797608350967A
:10043000ED91FC91519780818064808381E090E010
:100440000F90DF91CF911F910F91FF90DF90CF9090
:100450000895BF92CF92DF92EF92FF92CF93DF93F6
:10046000EC016A017B01B22E60E874E88EE190E055
:10047000A70196010E94BA0321503109410951098F
:100480005695479537952795E889F98982E08083C5
:10049000211580E1380798F0E889F989108260E435
:1004A00072E48FE090E0A70196010E94BA03215008
:1004B0003109410951095695479537952795EC859E
:1004C000FD853083EE85FF852083188EEC89FD89BC
:1004D000B082EA89FB89808180618083EA89FB8917
:1004E000808188608083EA89FB898081806880833D
:1004F000EA89FB8980818F7D8083DF91CF91FF9096
:10050000EF90DF90CF90BF9008951F920F920FB69B
:100510000F9211242F938F939F93EF93FF93E0916A
:100520003501F09136018081E0913B01F0913C0171
:1005300082FD12C0908180913E018F5F8F73209168
:100540003F01821751F0E0913E01F0E0EB5DFE4F7C
:10055000958F80933E0101C08081FF91EF919F9123
:100560008F912F910F900FBE0F901F9018951F9293
:100570000F920FB60F9211242F933F934F935F93D7
:100580006F937F938F939F93AF93BF93EF93FF935B
:1005900085E291E00E948101FF91EF91BF91AF91BF
:1005A0009F918F917F916F915F914F913F912F918B
:1005B0000F900FBE0F901F90189585E291E00E945A
:1005C000440121E0892B09F420E0822F0895109244
:1005D00028011092270188EE93E0A0E0B0E080931C
:1005E000290190932A01A0932B01B0932C0180E163
:1005F00091E0909326018093250185EC90E0909303
:1006000032018093310184EC90E090933401809327
:10061000330180EC90E0909336018093350181ECBA
:1006200090E0909338018093370182EC90E09093B2
:100630003A018093390186EC90E090933C018093DD
:100640003B0110923E0110923F0110924001109226
:100650004101089508950E9409010E942A030E9401
:100660005F00C3E7D1E00E9468002097E1F30E9499
:100670007301F9CFCF92DF92EF92FF920F931F9306
:10068000CF93DF936C017A01EB01E60EF71E00E0D9
:1006900010E0CE15DF0561F06991D601ED91FC9176
:1006A0000190F081E02DC6010995080F191FF1CFC7
:1006B000C801DF91CF911F910F91FF90EF90DF90D4
:1006C000CF9008956115710581F0DB010D90002038
:1006D000E9F7AD0141505109461B570BDC01ED9183
:1006E000FC910280F381E02D099480E090E0089570
:1006F000DC01ED91FC910190F081E02D09940F93C4
:100700001F93CF93DF93EC016DE00E9478038C017F
:100710006AE0CE010E947803800F911FDF91CF9194
:100720001F910F9108950F931F93CF93DF93EC01C7
:100730000E9462038C01CE010E947F03800F911FF3
:10074000DF91CF911F910F910895089597FB072E88
:1007500016F4009407D077FD09D00E94DC0307FC53
:1007600005D03EF4909581959F4F089570956195C1
:100770007F4F0895A1E21A2EAA1BBB1BFD010DC0DD
:10078000AA1FBB1FEE1FFF1FA217B307E407F50741
:1007900020F0A21BB30BE40BF50B661F771F881F1D
:1007A000991F1A9469F760957095809590959B01B3
:1007B000AC01BD01CF010895AA1BBB1B51E107C0CD
:1007C000AA1FBB1FA617B70710F0A61BB70B881FE1
:1007D000991F5A95A9F780959095BC01CD01089570
:1007E000EE0FFF1F0590F491E02D0994F894FFCFD0
:1007F00048656C6C6F20776F726C640000000000BD
:0C080000C4013A0344015F015101A20150
:107E0000112484B714BE81FFF0D085E080938100F7
:107E100082E08093C00088E18093C10086E0809377
:107E2000C20080E18093C4008EE0C9D0259A86E02C
:107E300028E13EEF91E0309385002093840096BBCB
:107E4000B09BFECF1D9AA8958150A9F7CC24DD24C4
:107E500088248394B5E0AB2EA1E19A2EF3E0BF2EE7
:107E6000A2D0813461F49FD0082FAFD0023811F036
:107E7000013811F484E001C083E08DD089C08234E0
:107E800011F484E103C0853419F485E0A6D080C0E4
:107E9000853579F488D0E82EFF2485D0082F10E0AE
:107EA000102F00270E291F29000F111F8ED06801E7
:107EB0006FC0863521F484E090D080E0DECF843638
:107EC00009F040C070D06FD0082F6DD080E0C81688
:107ED00080E7D80618F4F601B7BEE895C0E0D1E017
:107EE00062D089930C17E1F7F0E0CF16F0E7DF06D8
:107EF00018F0F601B7BEE89568D007B600FCFDCFD4
:107F0000A601A0E0B1E02C9130E011968C91119780
:107F100090E0982F8827822B932B1296FA010C0160
:107F200087BEE89511244E5F5F4FF1E0A038BF0790
:107F300051F7F601A7BEE89507B600FCFDCF97BE46
:107F4000E89526C08437B1F42ED02DD0F82E2BD052
:107F50003CD0F601EF2C8F010F5F1F4F84911BD097
:107F6000EA94F801C1F70894C11CD11CFA94CF0C13
:107F7000D11C0EC0853739F428D08EE10CD085E9AC
:107F80000AD08FE07ACF813511F488E018D01DD067
:107F900080E101D065CF982F8091C00085FFFCCF94
:107FA0009093C60008958091C00087FFFCCF809118
:107FB000C00084FD01C0A8958091C6000895E0E648
:107FC000F0E098E1908380830895EDDF803219F02E
:107FD00088E0F5DFFFCF84E1DECF1F93182FE3DFCA
:107FE0001150E9F7F2DF1F91089580E0E8DFEE27F6
:047FF000FF270994CA
:027FFE00040479
:0400000300007E007B
:00000001FF